:020000040800F2
:10000000500D0020454200088D4100088F41000836
:1000100000000000000000000000000000000000E0
:1000200000000000000000000000000091410008F6
:100030000000000000000000934100089541000806
:1000400077110008171300082B1800082F18000854
:1000500033180008CF2F00086F3E00087F400008CB
:10006000FF4100080B4200085D4200085F420008A3
:1000700061420008634200086542000867420008C8
:10008000694200086B4200086D4200086F42000898
:100090007142000873420008754200087742000868
:1000A000794200087B4200087D4200087F42000838
:1000B0009D4100088142000883420008FDB5B2B0AE
:1000C0003A98049102A93B22885400200D9024A85C
:1000D000401C2F900DE00498329A9047049000281D
:1000E00001D100F001FF0D98401C0D903398401C89
:1000F000339033980178002910D02529EBD10020C6
:100100000790089009900A900B900C90002102240F
:100110000120149008201290339D05E00D9800F006
:10012000E5FE0800149901436D1C28782028F8D0BA
:1001300023280BD02B2804D02D2804D0302808D019
:100140000AE02143F0E708000421ECE70800082159
:10015000E9E708001021E6E72A280FD13498026861
:100160001068121D349B1A600F90002804D542427B
:100170000F920800042101436D1C12E000200F9033
:10018000654A09E00F9B934205DA9E00F3185B0075
:10019000181830380F906D1C28780300303B0A2B5C
:1001A000F0D328782E2803D00020C0430E9027E0FB
:1001B0006D1C28782A2808D1349800680268001D30
:1001C000349B18600E926D1C1AE02D2802D12D224E
:1001D0006D1C00E0002200200E900CE0002A09D1E6
:1001E0000E9B4D4EB34205DA9E00F3185B001818C3
:1001F00030380E906D1C28780300303B0A2BEDD36D
:1002000002A801872E78310041487844FF30C01C95
:1002100000F052FF002801D06D1C00E0002602A86B
:100220003A214654405C682804D1287868280BD1CC
:10023000622005E06C2807D128786C2804D1712051
:1002400002A93A2288546D1C15A8069028786946A0
:100250000870681C3390684602781000253833D047
:100260001C3800D116E2001F022800D812E2133811
:1002700001D100F065FD093800D10BE2801E01D1EB
:1002800000F0FBFD401E01D100F0A8FD401E022839
:1002900000D8FFE1001F01D100F0A0FD401F00D1F8
:1002A00052E1401E01D100F04BFD401E00D1F3E0B1
:1002B000C01E10D0801E01D100F042FDC01E01D131
:1002C00000F03EFD00F0E4FD252015A9087014980B
:1002D000079000F0E8FD349800680468001D349928
:1002E00008600594002C00D0C2E002A83B21405CCD
:1002F000002800D1B5E00024E443064878441430D7
:1003000000F002FF201A01D000F0EEFD00F0CBFD5E
:10031000043D0000383D0000CBCCCC0C01236A46E4
:1003200002A9280000F0ADFE002801D000F0DCFD9D
:10033000641EF3D13295079D15AC002D0FD0329E6F
:10034000227802A9300000F08BFE002802D4641C41
:100350006D1EF5D13296002801D000F0C5FD302089
:10036000694608700A9C002C0DDD329D01236A4607
:1003700002A9280000F085FE002801D000F0B4FD9D
:10038000641EF3D13295059C089D002D0FD0329E3E
:10039000227802A9300000F063FE002802D4641C19
:1003A0006D1EF5D13296002801D000F09DFD30275A
:1003B00069460F700B9C002C0DDD329D01236A46AF
:1003C00002A9280000F05DFE002801D000F08CFD9D
:1003D000641EF3D13295059808994418099D002DA3
:1003E0000FD0329E227802A9300000F039FE00289A
:1003F00002D4641C6D1EF5D13296002801D000F0A5
:1004000073FD684607700C9C002C0DDD329D0123A6
:100410006A4602A9280000F034FE002801D000F04E
:1004200063FD641EF3D1329502A83821405C400779
:1004300000D45EE62020694608700198002800DCA0
:1004400057E6019C329D01236A4602A9280000F06C
:1004500018FE002801D000F047FD641EF3D132954C
:1004600047E63F487844FF30C01F059000F01BFD71
:100470000E9D002D03D5200000F06AFE09E02A0041
:100480000021200000F06CFE002801D0001B00E0DD
:100490002800089000F007FD349800680268001DED
:1004A000349908600020C0430021104002AA03C212
:1004B00015A80590069A3C2302A803C8002904D178
:1004C000002802D10E9C002C14D05B1E05072D0FB6
:1004D00030353A2D08DAD55400090C0720430909B4
:1004E00004D1002802D105E02735F4E7059CD51892
:1004F000AC42EAD33C20C01A0890D11805910E995D
:10050000884208DA081A0A9002A8018FAA4A0A400B
:10051000028700F0C8FC002901D400F0C4FC02A945
:100520003822895C14220A40102A01D000F0BBFC5A
:100530000F99079A891A0A9A891A081A002801DC61
:1005400000F0B1FC00F0FAFB02A83B21415C00295D
:1005500008D00024E4434B487844FF302930CFE6EC
:10056000083B00003A21405C62286AD0682819D014
:100570006A2845D06C2806D071284FD0742831D015
:100580007A2821D06FE0349800680168001D349A01
:10059000106000297AD10024E4433B487844FF30BE
:1005A0001738ADE6349800680168001D349A106071
:1005B000002905D10024E44333487844CA309FE63B
:1005C0000D98088000F06FFC349800680168001DE9
:1005D000349A1060002959D10024E4432A48784411
:1005E000A6308DE6349800680168001D349A1060CA
:1005F00000294BD10024E443234878448A307FE625
:10060000349800680268001D34990860002A13D1EC
:100610000024E4431C4878446E3071E63498006846
:100620000268001D34990860002A05D10024E443C3
:1006300015487844523063E60D98C11703C200F0A4
:1006400032FC349800680168001D349A106000295B
:1006500005D10024E4430C4878442C3050E60D9832
:10066000087000F020FC349800680168001D349A7E
:10067000106000290AD10024E4430348784408307C
:100680003EE600BF98390000AC3900000D980860C4
:1006900000F009FC34980368DB1D0720834334987D
:1006A000036003CB349D2B6002AB03C32023C80F30
:1006B00004D007982D2115AB19540DE002A8008F26
:1006C000204204D007982B2115AB195404E0C00731
:1006D00004D5079815A90B54401C079015A8079935
:1006E0004318059324AD02A8C0C8684600782021AD
:1006F000014368468170807861280BD00E980028ED
:1007000001D5062005E005D168468078672801D12B
:1007100014980E9002A803C808004C006415641CCD
:100720000ED109030CD003200890613A1A2A03D293
:100730002249794486310FE02149794482310BE026
:10074000002C0ED100030CD103200890613A1A2A24
:100750001DD31C4979446C310322180000F026FD9A
:10076000A1E301AA02A803C800F02DFD02AA03C25A
:1007700068468078612813D1059830210170811C6A
:10078000059169460978612905D1782104E00E496F
:1007900079443431E0E7582141700798801C079074
:1007A00002A803C892A20CCA02400B400ED1002A34
:1007B0000CD10024002660E1EFFF0000B0380000FB
:1007C000B0380000B4380000AC38000068468078CB
:1007D000612800D099E00E98002801D5212000E082
:1007E000401C13901398401C2E90300039000022BA
:1007F000002300F0FDFC02A830C802D280200006D1
:1008000045400198001F019024A90A7024A8461CA5
:100810002E98002832DD2E9F200029000022802300
:100820005B0300F0FEFC29D81C2200F013FD04003D
:100830000D0000F047FD2E90FF1F002F09DD00F096
:100840007BFD02000B002000290000F0DCFD04000D
:100850000D00F01D07212E9A002A0ADD491E08D43A
:10086000401E13071B0F03701211F5E7401E0022F4
:100870000270491EFAD5C61D002FCDDC24A82F9981
:10088000711A24AA551C139A0C00914200DD140021
:10089000002C33D48C4205DA411C095D082901DBA8
:1008A0000F2100E00021220024AB9B1801E0641E10
:1008B0005B1E521E1E788E42F9D00F2904D1411CB6
:1008C000895C491C401C8154002A04D524AD641C59
:1008D0000198001D0190611E10D46A1868460078C6
:1008E00013783033DEB23A2E01DBC318C6331370EF
:1008F000491E521E0029F3D5694608700E9800283B
:1009000000D4B9E0601E0E90B6E07F007F08019829
:1009100068494843684900F0EDFD019007200199BE
:10092000401A002805DD02003000390000F072FB9B
:100930000AE042420020614900F06CFB02000B001B
:100940003000390000F005FE6A469278662A02D12E
:10095000019A0A3200E006220E9B9A18142A00DD42
:10096000142224AB30241C705C1C02E030A803C8A5
:10097000139A002A40DD30AB03C3139230A803C89A
:1009800000F0B2FC2E9006460834042530000A21FF
:1009900000F0C4FD0F0030000A2100F0BFFD06008A
:1009A0003037601E077030000A2100F0B7FD0F00DD
:1009B00030000A2100F0B2FD0600A41E3037277077
:1009C0006D1EE3D108341398083813900028CDDD4C
:1009D0002E9800F0A1FC02000B0030A803C800F024
:1009E00012FD0022364B00F015FE30AA03C2C5E707
:1009F000FFFFFFFFFFFFFF7F2F98201A24A94D1C48
:100A000004E0401E0199491E01916D1C297830298E
:100A1000F7D069468978662902D10199491C06E018
:100A200069468978652901D1149900E000210E9A60
:100A30005418A04200DA441E002C1DD4844204DA6B
:100A4000285D342801DD392100E030212200681EB4
:100A5000831801E0641E5B1E521E1E788E42F9D080
:100A6000392902D1A95C491CA954002A04D50500E2
:100A7000641C0198401C0190019E13956846007803
:100A80006946487000F088FE406A00786946087040
:100A90000E9D20B2002804DC149C054878441030D8
:100AA00013906846807866280CD1761C24E000BF3D
:100AB000CC35000097750000A08601000000F03FD3
:100AC00084D7974168468078672846D130B20321A1
:100AD000C943884247DBA84245DA761C02A8008F4A
:100AE0001299C0B2084203D120B2A84200DC05002E
:100AF00030B22D1A00D5002537B2002F00DDBAE044
:100B00000898411C08913021059A1154002D05DCEC
:100B100002A8008F1299C0B2084206D00898411C62
:100B2000089169460978059A11547842854200DA9D
:100B30006E4236B270420B90AD1920B2854200DA97
:100B40002C0024B20994220013990598089BC01820
:100B500000F02CFB281B0C90DAE0684640786128F6
:100B600018D170201BE020B2A84206DA02A9098F32
:100B7000129AC9B2114200D105006D1E00D50025A0
:100B800068464078672802D16520694607E045201D
:100B9000694604E068464078412801D150204870F9
:100BA0000898411C089113990978059A11541398D3
:100BB000411C002D05DC02A8008F129AC0B2104221
:100BC00019D00898421C08926A461278059B1A545C
:100BD000002D10DD641E20B2854200DA2C0022B206
:100BE0000598089BC01800F0E1FA24B20898001993
:100BF0000890281B0B900598089940186946497879
:100C0000017031B2002903D42B214170871C03E00D
:100C10002D224270871C4E42002412AD300008E0A5
:100C20000A2100F067FC30AA03C229703098641CC6
:100C30006D1C00B20028F3DC012C08DC684640780B
:100C400020210143652902D1302038707F1C002CFF
:100C500009D1302038707F1C07E0641E12A8005DA7
:100C6000303038707F1C002CF7DC0598089940184C
:100C7000381A09904CE020B231B288421DDA22B213
:100C800013990598089BC01800F090FA24B20898B0
:100C900000190890391B0B91002D05DC02A9098F62
:100CA000129AC9B2114206D069460978059A1154C0
:100CB0000998401C09900C952AE032B213990598C6
:100CC000089BC01800F072FA0898C0190890A41B7D
:100CD000002D05DC02A9098F129AC9B2114205D074
:100CE000411C089169460978059A115420B2854241
:100CF00000DA2C0022B21398C1190598089BC0187D
:100D000000F054FA24B2089800190890281B0B90A0
:100D100002A83821405C14210140102900D0C2E013
:100D20000798089940180B994018099940180C9990
:100D300040180F99884200DBB5E0081A0A90B2E02B
:100D400002AA3A20105C622808D068280ED06A28CF
:100D500014D06C281DD0712810D01AE03498016886
:100D60000868091D349B1960C0B218E03498016806
:100D70000868091D349B196080B210E0349803683C
:100D8000DB1D072083433498036003CB349C23602E
:100D900006E0349801680868091D349B1960002139
:100DA00002AB03C3108F1299C0B208425BD002A8F5
:100DB00003C8002901D1002855D0684600782021B9
:100DC000014378294FD1079815A930220A54401CB5
:100DD000421C07926A4612780A5444E002AA3A205A
:100DE000105C622808D068280ED06A2814D06C28BD
:100DF0001DD0712810D01AE0349801680868091DC8
:100E0000349B196040B218E0349801680868091DE5
:100E1000349B196000B210E034980368DB1D072092
:100E200083433498036003CB349D2B6006E03498F1
:100E300001680868091D349B1960C11702AB03C320
:100E4000002902DA07982D2109E0108F204202D0F4
:100E500007982B2103E0C00705D50798202115AA84
:100E60001154401C079015A8079940180590684632
:100E7000017802A800F03CF815E014980790349827
:100E800000680168001D349A106015A801700AE01E
:100E9000252015A908701498079068460078002846
:100EA00001D04A7007940F980799401A0A99401A7E
:100EB0000899401A0B99401A0999401A0C99401A3E
:100EC000019002A83821405C400701D5FFF733FAB2
:100ED0002020694608700198002801DCFFF72BFAF2
:100EE000019C329DFFF71AFA0020C04335B0F0BDD7
:100EF000F2B586B0040025696F2901D1082707E003
:100F0000084620210143782901D00A2700E0102754
:100F10003C2603CC083C04AA03C26A46127E642A1B
:100F200003D06A46127E692A09D1002907DA04A88B
:100F300003C800220023121A8B4104A80CC004A885
:100F400003C800290DD100280BD1206B002808D13F
:100F5000082F3DD13820205C000739D53B263020B2
:100F600035E00294009504A830C8761E0196200052
:100F700029003A00FB1700F015FC3032D0B23A28B5
:100F80000DDA00988255200029003A00FB1700F086
:100F900009FC04000D0007D1002C05D10AE06846C9
:100FA000007E8218AF32ECE70298C0680099891978
:100FB0008842DAD3029C009D082F09D13820205C9A
:100FC000000705D5A85D302802D0761E3020A85530
:100FD0003C20801BA061A919E160216B884206DAE0
:100FE000081A2062208F1C490140218710E0002947
:100FF0000ED53821615C14220A40102A08D1616B99
:101000006269891A226A891A081A002800DD20629A
:1010100007B0F0BDF8B50026104F04000D00009297
:1010200014E0C00707D532003B002000290000F083
:10103000F1FA04000D0000984010009030003900D3
:1010400032003B0000F0E6FA06000F00009800288E
:10105000E7D120002900F4BDEFFF0000000024408C
:1010600010B503000C001100A0689847A06000288C
:1010700004D0E06A401CE062002010BD0020C043A4
:1010800010BDF8B50024002B11D007000E0014008D
:101090001D002178B068B847B060002809D0F06A18
:1010A000401CF0620020641C6D1EF2D10400200080
:1010B000F2BD0020C043F9E7C9B202788A4203D0EA
:1010C000401C002AF9D10020704730B50168411852
:1010D000446862088A188368E40704D54C461B19E3
:1010E00001E0641C09D1914203D00C7864B2491C20
:1010F00001E00C3030BD0D78491C1D705B1C002CCC
:10110000EFD4641EF7D5EEE780B5002801D100BF0B
:1011100007A006490B68002B03D022220021984724
:1011200001E000F07DFB222002BD00004809002004
:10113000636F6E73747261696E742068616E646C43
:1011400065723A20626164206D6573736167650042
:10115000431C0178401C0942FBD1C01A70472E0085
:10116000C9B2521E05D30378401C8B42F9D1401EF0
:10117000704700207047FEE770B4103A03D378C977
:10118000103A78C0FBD2530701D318C918C001D553
:1011900008C908C0D20704D30B880380891C801CAF
:1011A000002A01D50B78037070BC70478B0701D102
:1011B0008307E1D0124205D00B78491C0370401C14
:1011C000521EF9D1704710B5144600F002F82260A3
:1011D00010BD4A0053155B1C08D0520D06D00323E6
:1011E0001B02FE3AD21A1305C91A70470022704733
:1011F00030B4012464054D00EC420BD85D00EC4294
:1012000008D80C001C4364000443144304D29942E0
:1012100000D1904230BC7047FCD08B42FAD1824260
:10122000F8E730B4012464054D00EC420BD85D00B2
:10123000EC4208D80C001C4364000443144304D25D
:101240008B4200D1824230BC7047FCD09942FAD127
:101250009042F8E7124217D40023DB435B0D9C4613
:101260004B005B0D06D0634504D09B18634502D24A
:101270001205891870476246090D114309050020BF
:1012800000B500BF00BF00BD52424B005B0DF1D066
:101290005B1C5B05EED25B0D934102D91205891AE6
:1012A00070470BD10B031B13C90FC907821C002009
:1012B00043411343E4D912051143E1E7C90FC907BC
:1012C0000020DDE7F4464A1805D200F00FF801D5FA
:1012D00080174008604700F009F80121C9078842DB
:1012E00000D90800404260474A1812D2400DC90296
:1012F00008430121C9070843520D40210901521A30
:10130000521C06D452421F3201D4D0407047C0173D
:10131000704700207047FEE7010042221201D21EF2
:10132000004207D002D4521E0018FCD5C10A400565
:1013300012058918704700000100EED54042F446BE
:10134000FFF7EBFF0122D207114360478B4200D128
:10135000824205D98446100062468C4619006346D5
:10136000DF184C18640D7F0D3AD0661C760537D017
:10137000E61B352E34DCDB022B43DB0A0C0DC902E5
:101380002943C912202E0DDB1700203E06D01F0076
:10139000F741F3405F400026012A7741C0187141B0
:1013A0000DD217E01700F741F2405740F3415A4081
:1013B000B340F3405A400026801859410AD3A21C7A
:1013C00052050FD0C207012F724117004008CB070A
:1013D00018434908641C24054208AF41704161412B
:1013E000F0BC7047641C21050020F9E76B4010E059
:1013F0006B40ABE7F742F3D1E943F1E72442EFD189
:1014000000200021ECE7F0B40125ED070F005F405C
:10141000EED40C00871A9C4105D2C01BA141D21901
:10142000634169406B40AE0ADF184C18F442E1D2C8
:10143000640D7F0DE2D0E61B362ED1DCDB022B43A0
:10144000DB0AA4460C0DC9022943C90A012E28DC77
:1014500004D1D6075208DF073A435B08EF0A764209
:101460009041994114D039423BD1B619404149418C
:10147000761C394204D1761C001849413942FAD011
:10148000B9436746B74208D9A41B24052143A7E7FF
:101490000042EAD13642E8D1A2E7E40AE10700209F
:1014A0009EE7202E0BDD203E1F00F340F7415F40FA
:1014B000012A002257417E42984191410BE01700DA
:1014C000F741F2405740F3415A40B340F3405A408D
:1014D0007E42904199410A0303D2641EB6194041ED
:1014E00049410027641E24054208AE41784161410C
:1014F000F0BC7047CA0F00D0494203105A400DD0CB
:1015000004B500D3404200F009F8009AD20701D395
:101510004942124200D5404204BD0000094214D0A5
:1015200088420FD30122030C01D1000412040023CE
:1015300000185B418B4200D35B1A5241F8D319006B
:101540001000704701000020704708B500F06EF9E8
:1015500008BDF0B40E005E400125ED072E40B446F4
:10156000AE0ADF184C18F4423BD2F74241D2640D68
:1015700043D07F0D38D0E41BC902DB0229432B4343
:10158000CF0ADB0A0600B61A9F4104D2641EB619C0
:101590007F41B6185F416812800D241800188442FC
:1015A00022DCE80C0021B6197F41B61A9F4102D215
:1015B000B6185F413F1C40414941F4D3241C21DD52
:1015C0002405B6197F41B61A9F4105D33743C60794
:1015D00037430026012F7041614166463143F0BC1C
:1015E0007047FCD1F74205D20020C14349054908A4
:1015F000F3E704D00020C143F1E77F0DFAD00020CB
:101600006146ECE72442FAD1401C61410F03F6D356
:101610000020E2E7F0B50E005E400125ED072E4008
:10162000B446AE0ADF184C18F44208D2F7420ED284
:10163000640D01D07F0D12D100206146F0BD05D1AF
:10164000F74201D87F0D05D10020C143F0BDFBD189
:10165000640DF9D00020C143490549088FE0E41921
:10166000C902DB0229432B43DB0A460DC00231438A
:101670008E4630B487B295B27D432E0CADB2140CB9
:101680007C43A419260C240425439CB27C43A41952
:10169000190C7943270CC919A4B20F043C43090C57
:1016A000000C97B247432E0CBE193543ADB2170C50
:1016B0004743360CBF19A6B2BF193E043543240C6C
:1016C0003E0C36199FB24743BF19BCB23E0C891974
:1016D0001F0C47437F183E043443390C704680B2D8
:1016E00097B247432E0CBE193543ADB2170C474392
:1016F000360CBF19A6B2BF193E043543240C3E0C6C
:1017000036199FB24743BF19BCB23E0C89191F0C52
:1017100047437F183E043443390C77463F0C90B260
:1017200078432E0C80190604ADB22E43050CA0B2EE
:101730002D18120C7A435019020C80B2240CA418F4
:101740009AB27A43121914042043120C89181B0C04
:101750007B43C91830BCEF0A394203D1B619404166
:101760004941641E6F12BF0DE41B0BDBFF19BC4225
:1017700011DA240500274208AE41784161416646EE
:101780003143F0BD641C05D1401C6141CF0201D33F
:101790004908F4E750E75DE70148704700000000A2
:1017A0007408002012422DD0994231D970B500251D
:1017B0001B4209D00C00002112E01100FFF7AEFE21
:1017C0000A000021002370BD0942F6D00024012642
:1017D00049186441944200D3A41A7641F8D33100E9
:1017E000012601E0764109D2001864416D41A41A36
:1017F0009D41F7D2A4185D41B619F5D330002200FF
:101800002B0070BD1B42CFD108B500F011F808BD08
:1018100001D19042CAD202000B0000210020704783
:1018200080B5012000F006F801BDFEE77047FEE735
:101830007047FEE780B500BF00BF024A11001820C4
:10184000ABBEFBE72600020038B5040001D1012041
:1018500032BD250084356868002803D12870200037
:1018600000F0C1FF242068602068016801229143D4
:101870000160A06A002802D0200000F029FB2000AF
:1018800000F0DEF9012811D020684168084A0A40BA
:101890004260206881682A22914381602068016843
:1018A00001220A430260200000F07CFB32BD0000F0
:1018B000FFB7FFFF70B58C23C358202B2BD1002915
:1018C0000BD0130009D0836880246401A34206D1A1
:1018D0000369002B03D1CB0701D5012070BD002384
:1018E000C36603680D4CA34212D00D4CA3420FD027
:1018F0005B681B020CD5EFF31083012484F310887E
:10190000046825688026F6042E43266083F3108839
:1019100000F003FC70BD022070BD0000008000409C
:1019200000840040FEB504002368D86919460968A0
:101930009A6825005C3520260E4000962026064039
:1019400001960026B74F07400ED1019F002F10D0FF
:10195000009F002F02D1D70000D487E0A969002999
:1019600001D020008847F7BDAF4F174002D1AF4FDD
:101970000F407BD0C70706D5CF0504D501271F62CE
:101980006B6B1F436F63830708D5D30706D502230C
:1019900027683B626B6B04271F436F630423184265
:1019A00007D0D70705D527683B626B6B02271F431B
:1019B0006F63082318420AD0009F002F02D19A4F6C
:1019C000174004D027683B626F6B3B436B638023F7
:1019D0001B01184007D0480105D520680362686BD9
:1019E000202101436963686B002835D001980028E5
:1019F00009D00098002801D1D00004D5A969002998
:101A000001D020008847686B4027216889683940E9
:101A100002D12821014024D0200000F015FC2068CC
:101A20008068074019D0EFF31080012181F31088FE
:101A300021688A6840239A438A6080F31088686A24
:101A400000280AD07A498163686A00F04CFF0028B8
:101A500002D0686A816B8847F7BD200000F080FFE4
:101A6000F7BD200000F07CFF6E63F7BD2F69012FEA
:101A700000D094E01027384200D0394200D18EE0E7
:101A80001F621020C0432168896849064BD5696AE6
:101A90000A68526892B2002AE7D05C23E35A9A425D
:101AA000E3DA6A8009680968890634D4EFF31081A3
:101AB000012282F31088226813685E4F1F4017606E
:101AC00081F31088EFF31081012282F310882268DD
:101AD00093680127BB43936081F31088EFF3108173
:101AE000012282F31088226893684027BB439360E9
:101AF00081F31088202129632E61EFF310810122E8
:101B000082F31088226813681840106081F31088EF
:101B1000686A00F0AFFE022068615C20205A698884
:101B2000411A89B237E05C21615A6A88891A6A468B
:101B300011806988002973D06946098800296FD00F
:101B4000EFF31081012282F31088226813683A4F64
:101B50001F40176081F31088EFF31081012282F398
:101B6000108822689368354F1F40976081F3108872
:101B7000202129632E61AE61EFF31081012282F3EF
:101B80001088226813681840106081F310880220C2
:101B9000686168460188200000F0E3FEF7BDC702D7
:101BA00008D5570206D5802040031862200000F0B7
:101BB000D9FEF7BD80231B048027384209D00F408F
:101BC00001D11A4005D0E969002929D020008847B1
:101BD000F7BD4022104214D00A4012D0EFF310801B
:101BE000012181F3108821680A6840239A430A6022
:101BF00080F310882020E862EE61200000F0B3FE40
:101C0000F7BD034005D04A0003D5200000F0ACFE2C
:101C1000F7BDC00104D5002902D5200000F0A5FEC3
:101C2000F7BD00000F0800000100001020010004B3
:101C3000C5220008FFFEFFFFDFFEFFFFFEFFFFEFF4
:101C4000F8B5050000242B68186891490140A86880
:101C500008432969014368690843E9690143196038
:101C600058688C490140E86808435860A8698A4967
:101C70008B4205D089498B4202D00100286A084373
:101C80009968874A0A4010439860D86A0F218843B0
:101C9000696A0143D962834880210902824E102279
:101CA000824FBB422ED13668B607B60F30D0022E17
:101CB00036D044D3032E31D0774EB34202D0774E84
:101CC000B34242D1002A08D0022A0BD0042A00D104
:101CD00092E0082A00D192E0CEE001F04AF9002813
:101CE00000D1CAE072496A6A5200895AFFF716FCAD
:101CF0006A6851008918884203D31103814200D3D6
:101D00007FE0B9E06B4FBB420CD136680C273740FF
:101D100070D0042F13D0082F02D00C2F56D0CBE751
:101D20000222C9E79C4FBB420BD1366830273740AF
:101D300060D0102F03D0202FF2D0302FEEE70422F6
:101D4000BAE7964FBB4229D10022954F5AA6EB69BC
:101D50008B426AD1002A06D0022A08D0042A5FD01A
:101D6000082A60D088E001F004F9002869D0696889
:101D70000091696A4900715AFFF7D0FB4000009951
:101D8000490840180099FFF7C9FB01001039B94212
:101D900072D207400007400F384365E0AD4FBB42A9
:101DA000D2D0AD4FBB42CFD03B4FBB4210D13768F2
:101DB000C02636013E401DD04F09BE42BFD00F099C
:101DC000BE42ADD0C0273F01BE4200D1082273E71A
:101DD000324FBB42B9D13768C026B6003E4009D069
:101DE000CF09BE42ABD08F09BE4299D0C027BF00F9
:101DF000BE4293E700225FE701F07AF86FE7080040
:101E000070E7070E0602500800218019794100236F
:101E1000FFF7C8FC91494118914A91422CD223E026
:101E200001F066F8A1E70800A1E7002A06D0022A1F
:101E300008D0042A1BD0082A1CD01DE001F099F814
:101E400000281AD069680091696A4900715AFFF741
:101E500065FB0099490840180099FFF75FFB0100F6
:101E60001039B94208D280B22968C86005E001F093
:101E70003FF8E5E70800E5E7012428006830012184
:101E8000418001800021C16001612000F2BD00009D
:101E9000F369FFCFFFCFFFFF0080004000840040C8
:101EA000FFF4FF110024F4005410024000380140F8
:101EB000B81E0008004400400100020004000600B3
:101EC00008000A000C001000200040008000000103
:101ED0002821415C090706D501684A68614B134017
:101EE000826B1A434A602821415CC90706D5016804
:101EF0004A685D4B1340C26A1A434A602821415C1C
:101F0000890706D501684A68584B1340026B1A438B
:101F10004A602821415C490706D501684A68544B4C
:101F20001340426B1A434A602821415CC90606D51A
:101F300001688A684F4B1340C26B1A438A6028219C
:101F4000415C890606D501688A68B94B1340026C6A
:101F50001A438A602821415C490611D501684A6804
:101F6000B44B1340426C1A434A60426C80235B03BB
:101F70009A4205D14A68B04B1340826C1A434A60BA
:101F80002821415C090606D501684A68AB4B13401D
:101F9000C06C18434860704700480040004C004047
:101FA000F0FF0000FEB50600370084370024FC6017
:101FB00001F006F80190202530680068000717D569
:101FC0009F480090019B00222904300000F054F843
:101FD00000280DD0EFF31080012181F310883168C3
:101FE0000A6880239A430A6080F310887D6026E0A7
:101FF00030680068400725D591480090019B002279
:102000006904300000F038F800281BD0EFF310808E
:10201000012181F3108831680A688A4B13400B60F4
:1020200080F31088EFF31080012181F3108831686C
:102030008A6801239A438A6080F31088BD603C70EF
:102040000320FEBD7D60BD60F46634673C700020F7
:10205000FEBD000000500040003C014000FDFFFFBD
:1020600000FD0F00FF7FFFFFFFFFFDFFFFFFFEFFF3
:10207000FFFFFBFFFFEFFFFFFEB580273F010824B6
:102080000025060001916846027002933068C0691D
:10209000019901400198814201D1012000E0002016
:1020A00069460978884236D108980021C943884298
:1020B000ECD000F085FF0299401A0899814201D3C3
:1020C000002901D10320FEBD306800684007DDD53E
:1020D00001988028DAD04028D8D03068C0692040E4
:1020E000306803D1C0693840D0D009E004623000C4
:1020F00000F0AAF830008430C46005700120FEBDF5
:1021000030680762300000F09FF8300084302021F2
:10211000C1600570D6E70020FEBDF4B58165010001
:102120005C316A4612880A806A4612884A80002416
:102130008C61876880225205FF25130C9F4204D1D1
:102140000669002E10D1584D0EE07F26002F03D1D6
:102150000769002F05D107E0974207D10569002DD7
:1021600001D18E8003E03F258D8000E08C804C63A0
:1021700022240C63EFF31084012585F31088056891
:10218000AE6801273743AF6084F310888C68550030
:10219000AC4228D16C4624888D89AC4223D3846814
:1021A0009C4205D10369002B02D1404B8B6110E0AA
:1021B0003F4B8B61016900290BD0EFF310810123A4
:1021C00083F3108803681C68150D25431D6081F397
:1021D0001088EFF31081012383F31088006883686F
:1021E0001A43826011E082689A4212D10269002A81
:1021F0000FD1304A8A61EFF31081012282F31088F7
:102200000068026820231343036081F310880020D4
:10221000F2BD294A8A6101690029ECD0EFF31081EF
:10222000012282F310880068026890235B00EAE7CD
:10223000FFDFFFFFFFFFEFFFFFFF9FFFFFFFF7FF46
:10224000FFFFFF01DFFEFFFF10B5EFF3108101225A
:1022500082F3108802681368184C1C40146081F3E4
:102260001088EFF31081012282F3108802689368CE
:10227000134C1C40946081F31088C16E01290BD16E
:10228000EFF31081012282F3108802681368102492
:10229000A343136081F3108820218C2281500021F8
:1022A000C166416710BD0000FF010000F525000870
:1022B0005B24000881230008D9220008DFFEFFFF0D
:1022C000FEFFFFEF80B5806A0100563100220A81CF
:1022D0000A8000F045FB01BD70B501005C31026869
:1022E0000B6B222B47D1526A8B881340826D13707F
:1022F000826D521C82654A88521E4A804A88002A92
:102300003DD1EFF31082012383F3108803681C682A
:10231000B44D25401D6082F31088EFF31082012335
:1023200083F3108803689C680125AC439C6082F3AA
:10233000108820220A6300228A614A610368AA4C3D
:10234000A34211D0A94CA3420ED05B681B020BD54F
:10235000EFF31083012484F3108804682568A44EE9
:102360002E40266083F310880B69012B00D15CE0BE
:1023700000F02CFE70BD906908210143916170BD91
:1023800070B501005C3102680B6B222B47D1526A99
:102390008B881340826D1380826D921C82654A88FF
:1023A000521E4A804A88002A3DD1EFF31082012351
:1023B00083F3108803681C688A4D25401D6082F3F2
:1023C0001088EFF31082012383F3108803689C6860
:1023D0000125AC439C6082F3108820220A6300220E
:1023E0008A614A610368804CA34211D07F4CA342AA
:1023F0000ED05B681B020BD5EFF31083012484F32E
:102400001088046825687A4E2E40266083F3108871
:102410000B69012B00D108E000F0D8FD70BD906978
:1024200008210143916170BD00000A61EFF3108142
:10243000012282F31088026813681024A3431360FA
:1024400081F3108801681022CB69134000D00A6222
:102450005C21415A00F085FA70BDFEB505005C357F
:10246000AB880468E76921460968A2682D6B222DB4
:1024700000D0B1E005005C35AC89002C06D004002A
:1024800002930191009200261BE0200001005C31C4
:102490004A88002A00D1A3E08B899A4200DB9FE0A2
:1024A000EFF31082012383F3108803689C68B44D16
:1024B00025409D6082F31088B24A71E1200000F04F
:1024C00085FDB806E1D52068406A02990140A06DFB
:1024D0000170A06D401CA0656888401E688020685F
:1024E000C769790727D0F90707D50199C90504D528
:1024F00001210162686B014369630420B90708D5B3
:102500000099C90705D5022122681162696B014350
:102510006963074208D00099C90705D52168086298
:10252000686B022101436963686B002803D02000B7
:1025300000F016FA6E6368880028C2D1EFF31080AD
:10254000012181F3108821680A688F4B13400B60CA
:1025500080F31088EFF31080012181F31088216847
:102560008A688A4B13408B6080F310882020286390
:10257000AE616E6120681C49884211D01B498842B7
:102580000ED0406800020BD5EFF31080012181F3DB
:10259000108821680A68164B13400B6080F310887E
:1025A000286901288AD12E61EFF31080012181F37F
:1025B000108821680A6810239A430A6080F3108803
:1025C0002068C169C90601D5102101625C20215A29
:1025D000200000F0C6F974E7A06908210143A16159
:1025E000F7BD0000DFFEFFFF0080004000840040D8
:1025F000FFFFFFFBFEB505005C35AB880468E769AB
:1026000021460968A2682D6B222D00D0B2E005009A
:102610005C35AC89002C07D0040068460380029129
:10262000019200261BE0200001005C314A88002A4C
:1026300000D1A3E08B899A4200DB9FE0EFF3108288
:10264000012383F3108803689C684D4D25409D60ED
:1026500082F310884E4AA3E0200000F0B7FCB806D1
:10266000E1D52068406A694609880140A06D018073
:10267000A06D801CA0656888401E68802068C769BE
:10268000790726D0F90707D50299C90504D5012194
:102690000162686B01436963042002210F4207D085
:1026A000019AD20704D5226811626A6B02436A63F9
:1026B000074207D0019AD20704D522681062686BDE
:1026C00001436963686B002803D0200000F048F9DB
:1026D0006E6368880028C2D1EFF31080012181F376
:1026E000108821680A68284B13400B6080F310881B
:1026F000EFF31080012181F3108821688A68234B51
:1027000013408B6080F3108820202863AE616E61D7
:1027100020682049884211D01F4988420ED0406865
:1027200000020BD5EFF31080012181F3108821689E
:102730000A681A4B13400B6080F31088286901283F
:102740008AD12E61EFF31080012181F31088216876
:102750000A6810239A430A6080F310882068C169D0
:10276000C90601D5102101625C20215A200000F029
:10277000F8F874E7A06908210143A161F7BD0000E2
:10278000FFFFFFEFD9220008FFFEFFFFFEFFFFEF74
:10279000812300080080004000840040FFFFFFFB11
:1027A0008A61EFF31081012282F3108800680268C9
:1027B00020231343036081F31088F7BD81B02A48BA
:1027C000012142680A434260426811400091009929
:1027D0008021490502680A430260006801400091B7
:1027E000009801B0704730B599B00400142101A8D9
:1027F00000F0EEFB4C2106A800F0EAFB20681B4924
:1028000088422ED1022406940025089506A800F0DF
:10281000E7FB002801D000F0E0FD154821048268A4
:102820000A43826082681140009100990121026888
:102830000A43026000680840009000980C20019054
:10284000029403950495059101A9A020C00500F00C
:10285000DBFD002200211C2000F0BDFE1C2000F04A
:10286000BFFE19B030BD00003C10024000440040E3
:102870003410024070B5002809D001002431002234
:102880002523C35C022B04D00423C3630A700120F8
:1028900070BD03681C680E25AC431C60846C2F4B14
:1028A00025681D402560046825680126B54325601C
:1028B00001244425455D1C262E400125B540066CAB
:1028C0007560056DC66C7560456D002D06D02D6870
:1028D0002B40456D2B60C36D856D6B602523C45403
:1028E0000A70002070BD70B500210024012225234C
:1028F000C35C022B03D00421C16301242AE00368D6
:102900001D680E26B5431D6003681D6895431D6054
:10291000856C124B2E681E402E604425455D1C269A
:102920002E400125B540066C7560056DC66C75605E
:10293000456D002D06D02D682B40456D2B60C36D75
:10294000856D6B602523C25424228154816B00293C
:1029500000D08847200070BD00000000FFFEFFFF90
:10296000704770477047704770477047FEB5050065
:102970001BD0B64C2878C00719D5A168382008406C
:10298000E1688027BF02102808D18807800F03283C
:1029900006D069687808814233D13AE00828F8D136
:1029A0002068074003D06868002800D1E3E1287858
:1029B00080077AD5A06838210140E268A448A54F75
:1029C00010294DD19207920F022A4BD0E9680029B5
:1029D00000D194E021680840296901432160206802
:1029E000A10D0143216000F0EBFA060020684005CC
:1029F00000D57DE000F0E4FA801B0328F6D3032025
:102A0000FEBDA022D202914207D1216882000A4372
:102A1000226021680843206007E02068B649014031
:102A200021602068B54901402160686800280BD00A
:102A300000F0C6FA060020683840B8D100F0C0FAAD
:102A4000801B6528F7D3DAE700F0BAFA06002068A1
:102A50003840ACD000F0B4FA801B6528F7D3CEE73D
:102A60000029B3D12268520502D5EA68002A3ED077
:102A7000626817406A6912023A43626000290ED107
:102A8000216808402969014321609D48012122688D
:102A90009204520F9140FEF741FDB8490860B848D2
:102AA000006800F0C3FD002821D102272878000724
:102AB0000AD5A06838210140182930D1206E38404D
:102AC00002D0A869002812D02878400700D4A5E0D9
:102AD00000200190A06838210140202941D1E06DFB
:102AE000074000D19AE0A868002800D096E042E1B3
:102AF000606807406869000238436060D5E7206875
:102B0000A0490140216000F05BFA06002068400502
:102B1000CBD500F055FA801B0328F7D36FE7A869DF
:102B20000028206E0ED001210143216600F048FAF2
:102B30000600206E3840C7D100F042FA801B0328FF
:102B4000F7D35CE701218843206600F039FA0600DC
:102B5000206E3840B8D000F033FA801B0328F7D33A
:102B60004DE7F806E16B014008D1E16B0143E163F9
:102B7000E16B08400090009801200190824F386876
:102B8000C00512D4A00D0090386800990143396047
:102B900000F016FA060038680099014005D100F0EF
:102BA0000FFA801B0328F6D329E7A8680121012822
:102BB00005D00528E06D06D104220243E265E06DF0
:102BC0000143E16505E08843E065E06D0421884349
:102BD000E0650227A86800280CD000F0F1F9060093
:102BE000E06D384013D100F0EBF9801B6749884253
:102BF000F6D304E700F0E4F90600E06D384006D0B3
:102C000000F0DEF9801B61498842F6D3F7E60198AF
:102C1000002803D0E06B5E490140E163287880061C
:102C200029D580273F04E8690028206814D0790856
:102C30000143216000F0C4F90600206838401AD131
:102C400000F0BEF9801B0328F7D3D8E6001002403D
:102C5000FFC7FFFFFF80FFFFA2490140216000F096
:102C6000AFF906002068384005D000F0A9F9801BB4
:102C70000328F7D3C3E6286A002855D0A168382274
:102C80000A40102A52D08027BF04974902282068A2
:102C900038D10140216000F093F9060020683840E7
:102CA00005D000F08DF9801B0328F7D3A7E6E06874
:102CB0008E490140686A0843A96A0143E86A000234
:102CC0000843296B0143686B0843A96B0143E1602A
:102CD0002068790801432160E068F9000143E16060
:102CE00000F06EF90500206838401DD100F068F949
:102CF000401B0328F7D382E6FFFFFEFFFFFFFBFF29
:102D00000024F4000140216000F05AF90500206819
:102D1000384005D000F054F9401B0328F7D36EE685
:102D2000E0689B490140E1600020FEBD012822D0FF
:102D3000E0688107890F6A6A91421CD170210140C5
:102D4000AA6A914217D1FE21C9010140EA6A120222
:102D5000914210D1F821890301402A6B91420AD196
:102D6000E021090501406A6B914204D1400F400700
:102D7000A96B8842D8D00120FEBD00BF700800209A
:102D80006C080020FFFEFFFF007000408913000068
:102D9000FFFFFFEFF8B5070066D000917D4800689F
:102DA0004007400F884218D27A4C20680721884398
:102DB00000990143216000F003F9009D060020689E
:102DC0004007400FA84207D000F0FAF8801B724974
:102DD0008842F4D30320F2BD00953968704C02207C
:102DE00001420CD0490704D5A168E022D2010A4370
:102DF000A260A168694A0A40B9681143A160072529
:102E0000ED433978C90732D57968012918D120688E
:102E1000800329D5A06828400143A16000F0D0F8C4
:102E20003E000700A068382101407068C000814260
:102E30001CD000F0C5F8C01B57498842F2D3C9E73F
:102E4000022902D12068800103E0002903D1206813
:102E50004005DFD408E0032903D1226E1040D9D108
:102E600002E0E26D1040D5D10120F2BD370000989C
:102E7000484909684907490F884217D24548006800
:102E80000540009828434349086000F099F8009DE8
:102E90000600404800684007400FA84206D000F0F6
:102EA0008FF8801B3C498842F3D393E7387840077A
:102EB00005D5A0683B490140F8680843A06000F0D0
:102EC00017F83949A2681205120F9200895CC906E9
:102ED000C90EC840354908603548006800F0A6FBB7
:102EE000F2BD0000FFFFBFFFFFFFFFFE8C80C1119E
:102EF00030B5072130482A4C3823A2681A4006D141
:102F000023680122DB0A19408A4011001EE04208B2
:102F1000A5681D40082D01D1100030BDA5681D40D9
:102F2000102D16D1E368E5682D092940491C7F253D
:102F30009B079B0F032B00D11000FEF7EFFAE1680F
:102F4000090A0D406843E168490F491CFEF7E6FA9B
:102F500030BDA0681840202802D18020000230BD7A
:102F6000A0680340182B02D1FA20C00130BD002018
:102F700030BD104801680D480068104A4904490FE7
:102F80008900515CC906C90EC840704700000000A6
:102F9000FCFFFEEE0020024089130000FFF0FFFF5F
:102FA00000100240FF8FFFFF8040000870080020E3
:102FB0006C080020081002400024F4006C41000856
:102FC00001484068704700BF640800207047FEE772
:102FD000002200BF094202D0491E4254FCD1704772
:102FE000F0B585B0040000206A461070984D0221AB
:102FF0000491216889035AD5029080204005296BED
:10300000014008D1296B01432963296B08400190D5
:10301000019801200290A80D03908E48019000684D
:103020000399014301980160FFF7CAFF0600019868
:1030300000680399014008D1FFF7C2FF801B0328F5
:10304000F5D30320694608702AE0296DC02080006E
:103050000840814F00280ED0216C88420BD0286D8B
:103060003840296D802252020A432A65296D7B4A25
:103070000A402A652865C0070DD5FFF7A1FF0600A5
:10308000286D0499014006D1FFF79AFF801B74490F
:103090008842F5D3D5E7286D0740206C3843286572
:1030A0000298002803D0286B6E490140296303224F
:1030B000D2432078C00704D5A86C10406168014352
:1030C000A96420680499014005D0A86C0C218843AC
:1030D000A1680143A9642078400705D5A86C302178
:1030E0008843E1680143A9642078C00605D5A86C2F
:1030F0005D49014020690843A8642068C00405D5E3
:10310000A86C5549014060690843A864206880059F
:1031100005D5A86C55490140A06A0843A8642068F9
:10312000400505D5A86C52490140E06A0843A864EF
:1031300050482178890604D5A96C0140A3690B4346
:10314000AB642178490605D5A96C4B4B0B40E1696E
:103150001943A964216849040ED5A96C890089081E
:10316000236B0B43AB64216B8023DB05994203D1B6
:1031700029689B0B0B432B602168090305D5A96CBB
:1031800040239943636B0B43AB64802149048B0854
:103190002668B6020BD5AF6C384E3E40A76B37435E
:1031A000AF64A66B9E4202D12E680E432E60266845
:1031B00033400BD0AB6C324E1E40E36B3343AB64F9
:1031C000E36B8B4202D12B680B432B600B0A266802
:1031D00036050AD5EE6C3240266A1643EE64226A42
:1031E000012A02D12A681A432A60CA0A26681640B0
:1031F0000BD0EE6C0C27BE43676A3743EF64666AF8
:10320000042E02D12E6833432B6023680B400AD072
:10321000EB6C1840636C0343EB64606C904202D12A
:10322000286808432860206880010CD5E86C0A4AA9
:103230000240A06C1043E864A06C0A0C904202D1DA
:103240002868014329606846007805B0F0BD000099
:103250000C10024000700040FFFCFFFFFFFFFEFF6C
:1032600089130000FFFFFFEFFFF3FFFFFFFFF3FFF6
:10327000FFFFCFFFFFCFFFFFFF3FFFFFFFFFBFFFBE
:10328000FFFFFFFE70B586B072B600F0F5F90028BA
:1032900001D0022061E000F067F81422002101A8AB
:1032A00000F0FEF9012452480168214301600168E1
:1032B000214000910099022102680A4302600068DF
:1032C0000140009100984B4E00220421300000F094
:1032D00051F904200190029400250395049501A959
:1032E000300000F091F8444C44482060E120400256
:1032F0006060A560E56025610C206061A561E56105
:1033000025626562A5622000FEF79EFA002801D0C2
:1033100000F063F80021200000F0E9F9002801D056
:1033200000F05BF80021200000F0FAF9002801D03D
:1033300000F053F8200000F0BDF9002801D000F0A3
:103340004CF80122210094312000FEF7B3FA62B656
:10335000FA20800000F03AFA032006B070BD80B574
:10336000012200F007F901BD30B593B03C220021E5
:1033700004A800F095F910220021684600F090F9A9
:103380008020800000F036FA02240494E0010790C7
:1033900000250895402009900C940D940E95082066
:1033A0000F9080031090000211900001129004A869
:1033B000FFF7DCFA002801D000F00FF8072000909A
:1033C00001940295039502216846FFF7E3FC00286B
:1033D00001D000F002F813B030BDBFF34F8F0848A2
:1033E00008490860BFF34F8F00BFFDE700000000F1
:1033F0003410024000040050AC080020004400409B
:103400000400FA050CED00E0FFB500220F23029343
:103410002DE0052603E05A4EB042FAD10426AE4014
:103420002643009C2660574C2568DC4325404E68A7
:10343000F60200D51D43534E3560756825404F6830
:10344000BF0200D51D4375604F4D6E6826404D6824
:10345000AD0300D51E434C4D6E602E6834404E685F
:10346000F60302D526001C0034432C60521C0B6866
:103470001C00D4407DD0012595402B40F6D054004F
:103480000327A740FE4301964E68B707BF0F012FE1
:1034900003D0B607B60F022E0ED18768019E3E40BC
:1034A000CF68A740374387604668AE434D68EF0654
:1034B000FF0F9740374347600D79AD07AD0F032DE0
:1034C00025D0C568019E2E408D68A5403543C56056
:1034D0000D79AD07AD0F022D19D1D508AD004519F5
:1034E0002E6A039697001C263E406F463E70039E50
:1034F000B446029F6E463678B7406646BE43B44631
:103500000F696E463678B740664637432F620768C4
:103510000326019D3D404F683740BC462700644666
:10352000BC402C4304604C68350425409ED0174CA9
:103530009508AD0064190094009C2468D7001825F4
:103540003D40029FAF40BC43A027FF05B84201D1D8
:10355000002664E70E4FB84201D101265FE70D4F08
:10356000B84201D102265AE70B4FB84200D052E7C9
:1035700055E7FFBD002A01D0816170478162704725
:1035800000100050001802408018024060180240ED
:103590000004005000080050000C005010B5C2009C
:1035A00018231340FF249C40E2438907090E9940E9
:1035B000030004D419489B089B00C01806E0184B70
:1035C0000007000F083880088000181803681A40A8
:1035D0001143016010BD80B5FFF7E0FF01BD0000A1
:1035E000010005D40121C006C00E81400D480160D4
:1035F000704710B5401E80214904884201D3012044
:1036000010BD094C606003210020C043FFF7C6FFD6
:103610000020A0600721216010BD000000E400E050
:103620001CED00E000E100E010E000E070B50600F5
:1036300000240F4D2978002916D0FA208000FDF7CC
:103640006DFF01000B480068FDF768FFFFF7D1FF31
:10365000002809D1042E07D2002231000020C043E7
:10366000FFF7B9FFAE6000E00124200070BD00BF8D
:10367000640800207008002010B500240748016885
:10368000820D0A4302600320FFF7D0FF002801D01B
:10369000012401E0FFF792F8200010BD0020024055
:1036A00010B504000800110002002000FFF792FC92
:1036B000200010BD30B5010084310A78012A01D103
:1036C000022030BD01220A7024224A600268136879
:1036D00014680125AC43146000224266224C1C4051
:1036E00000680460202048600A70002030BD70B57A
:1036F0000400250084352878012801D1022070BDFE
:103700000120287024206860206806680268012370
:103710009A43026020688268D200D208114317E001
:1037200070B50400250084352878012801D10220D5
:1037300070BD012028702420686020680668026837
:1037400001239A43026020688268084B13401943A2
:103750008160200000F00CF820680660202068607E
:103760000020287070BD0000FFFFFFDFFFFFFFF1AA
:10377000F8B50400606E002802D10120012517E091
:10378000206881680901490F00918068410F00BFDE
:103790000CA600BF09A7785CC000715CFDF7AAFE0B
:1037A00005000098385CC0000099715CFDF7A2FE2E
:1037B000210068314D800880F1BD00000101010346
:1037C00007010000080402040801010138B50500E2
:1037D000FFF7F6FB04000020C043854202D00448F6
:1037E00000782D18FFF7ECFB001BA842FAD331BD7F
:1037F0006408002010B50E4C21680E4A0A400243AE
:103800002260610D884210D10B48006806214843B0
:103810000A49FDF783FE401C00E0401E616949052E
:1038200003D50028F9D1032010BD002010BD0000F1
:1038300000700040FFF9FFFF7008002040420F00B9
:1038400010B5040001D0002A01D1002010BD616034
:10385000226094208000201800F062FA20004C3092
:1038600000F05EFA0020932189006050207260729F
:103870002073022010BD80B50A001421203000F012
:10388000B9FA01BD80B50A001421343000F0B2FA53
:1038900001BD0000F8B5FFB081B0050000D175E1B1
:1038A000724F734E0924287A092862D801A140007A
:1038B000095A8F44120034008400A400C600F000AE
:1038C00030019602C002CC02009603233A0000BFEA
:1038D000B5A1280000F09EF9012801D1012141E1A4
:1038E000632846D12C725C2051E12020285C0028FE
:1038F00003D03420285C002801D1042047E1642152
:1039000001A8FFF765FB2800343000902B0020331E
:10391000A04A642101A800F06DFA009603233A0042
:1039200001A9280000F076F9012801D1022119E14E
:1039300063281ED12C725D2029E1009603233A00F2
:103940009DA1280000F066F9012801D1032109E1B9
:1039500063280ED12C725E2019E1009603233A00F1
:103960009AA1280000F056F9012801D10421F9E0BC
:10397000632800D00AE12C725F2008E1009603233F
:103980003A0000BF97A1280000F044F9012805D1B2
:10399000296828006A6812689047E2E06328E8D145
:1039A0002C726020F3E0642101A8FFF711FB8A204C
:1039B000C000281800F098F9030000BF8EA264210F
:1039C00001A800F017FA0096032373A201A92800AA
:1039D00000F020F9012801D10720D0E06328C8D1E8
:1039E0002C726120D3E0002728004C3000F0AFF9A2
:1039F000002857D193208000281801680A2960D92F
:103A00000760FA21490003A8FFF7E2FA28004C30CA
:103A100000F0A5F9020003A928004C3000F0C8F915
:103A2000B6A103A800F00CFA00284BD00026002411
:103A30000297009759A103A800F002FA002800D0CD
:103A4000077003A80019641C019401782C2926D161
:103A500078210170761C52A1032E1DD103A800F01D
:103A6000EFF9009001460022002309E054420008CB
:103A7000B80B00000A235A431218303A0123491C9C
:103A80000878002805D00400303C0A2CF2D3002B23
:103A9000F5D00292019C02E0019C042E02D2252C5A
:103AA00029D2CEE727D10098002824D000F0C8F909
:103AB000002820D0029B421C296828006C68646999
:103AC000A04718E08FA103A800F0BAF9002805D09C
:103AD000296828006A68526890470CE08CA103A806
:103AE00000F0AEF9002806D00420287229682800CA
:103AF0006A6892689047942080002E18300000F089
:103B000026F9002842D1FA2149008A20C00028184D
:103B1000FFF75EFA002401226946300000F048F900
:103B2000281920494018694609784170132C0BD296
:103B30000A2902D100780D2806D0641C300000F05C
:103B400006F90028E7D021E0052018E000960323BD
:103B50003A008A20C0002918280000F05BF80128EC
:103B600004D10621280000F0B7F80FE063280DD13A
:103B70002C7262200BE0A86CC82807D3687A2872E0
:103B800004E0296828006A68D268904700207FB066
:103B900002B0F0BDFC4000083E0000000D0A00002D
:103BA0002C0000004F04000041542B424C45494E6C
:103BB00049543D320D0A000041542B424C454741C7
:103BC0005454535352564352450D0A0041542B420C
:103BD0004C45474154545353525653544152540D3B
:103BE0000A00000041542B424C4541445653544175
:103BF00052540D0A0000000041542B424C454741ED
:103C0000545453494E443D302C312C372C25640DEF
:103C10000A000000F0B5FDB0040057D00091002963
:103C200054D0170052D0002B50D0829E002E4DD081
:103C30000025207B002803D0022844D014D348E07C
:103C4000E56100982061A069401CA06167610120C6
:103C50002073009800F048F80300009A21682000C3
:103C600064682469A04734E020004C3000F06FF80D
:103C7000002822D193208000201801680A291CD333
:103C8000E1698E4219D30560FA2149006846FFF7C1
:103C90009FF920004C3000F062F8020069462000D5
:103CA0004C3000F085F83900684600F0C9F800286B
:103CB0000FD02573A56101200CE0E069864208D28F
:103CC0000220207305E0A069984201D3632001E03F
:103CD000257300207DB0F0BD002804D008220272B8
:103CE00041720021816470470100002001E0401C06
:103CF000491C0A78002AFAD1704700002B57524914
:103D000054453A002B424C45434F4E4E3A0000007A
:103D10002B424C45444953434F4E4E3A000000005D
:103D2000002800D1704780B500F002F8012002BDE4
:103D3000002800D1704780B500210160816041609A
:103D4000FA2149000C30FFF743F9012002BD016858
:103D50004068814201D101207047002070474168CE
:103D60000268501A03D5FA2040001018401A8A42FF
:103D700000D100207047002800D1704730B50029DD
:103D800015D0002A13D08368CB5C04680419237310
:103D90000468641C04600023FA256D00AC4200D363
:103DA00003608468641C84609442ECD3836030BDFB
:103DB000002800D1704730B5002A1AD0446800238B
:103DC0000568A54214D00419247B85684C554568C4
:103DD0006D1C4560FA246400A54200D343608568E9
:103DE0006D1C8560A54200D3836084689442E5D34E
:103DF000836030BD08B410B585B007AB04930024D0
:103E00000394002902D10194029402E00190491E1A
:103E10000291009404AB01A9084878441E30FCF7D5
:103E20004DF90199002900D00C70002800D40398A6
:103E300005B0019910BC02B0084700BFED030000B7
:103E400070B50D78002D11D00C0004E0491C0E78DF
:103E5000964207D0401C2900FDF72EF9002805D016
:103E6000010023005B1C1A78002AEFD170BDFEE729
:103E700010B504212A48FFF772FA2A4C2A48201864
:103E8000FFF74EFF2200294821182000FFF7D8FC39
:103E90002EA12000FFF7EFFC2FA12000FFF7F2FC7E
:103EA00010BD38B5C0B01F4C2000FFF7F3FC204810
:103EB0002018017901291DD101681E4A914219D3A8
:103EC000002101601C4805686D1C0560FF216846E3
:103ED000FFF77EF82B00194AFF216846FFF78AFF9B
:103EE0006846FDF735F902006946942080002018E5
:103EF000FFF741FF41B030BD70471148002101601C
:103F000001210171704700200E4908707047704709
:103F1000704780B511001A000B48FFF72CFF01BD58
:103F20000004005000000020440600004C0800007F
:103F300044080000B80B000044090020603F00085E
:103F400044080020480800204406002053594B4CE8
:103F50005F424C45000000003132333435360000FA
:103F6000546865206A6F75726E6579206F66206C83
:103F70006966652069732066696C6C656420776981
:103F800074682074776973747320616E642074752B
:103F9000726E732C206C656164696E672075732086
:103FA000646F776E20706174687320756E6B6E6FCE
:103FB000776E2E20496E2074686520646570746881
:103FC00073206F6620756E6365727461696E7479B3
:103FD0002C2077652066696E6420737472656E6745
:103FE000746820746F20666163652074686520635F
:103FF00068616C6C656E6765732061686561642ECD
:1040000054657374206E756D6265722025640D0AA7
:1040100000000000686A6C747A4C00007072696E6F
:1040200074665F733A20256E20646973616C6C6FEF
:10403000776564007072696E74663A20626164200C
:10404000256E20617267756D656E74007072696EA1
:1040500074665F733A206261642025732061726721
:10406000756D656E74000000000000006E616E00EA
:104070004E414E00696E6600494E46003000FEE734
:104080000000000000000000000000000000000030
:104090000000000000000000000000000000000020
:1040A0000100000002000000030000000400000006
:1040B00006000000070000000800000009000000E2
:1040C00070B40123002413E00168001D194202D0DE
:1040D0004D466918491E0C60091D121F042AFAD2A8
:1040E0000D00960701D50C80AD1C1A4000D02C7035
:1040F0000268001D002AE7D170BC704741542B4272
:104100004C454144564441544145583D2225732273
:104110002C2232413030222C222573222C300D0AE1
:104120000000000010B5074979441831064C7C4462
:10413000163404E0081D0A68891888470100A14266
:10414000F8D110BD080000002400000075FFFFFF3B
:10415000A0000000AC080020000000006FCFFFFFAF
:1041600027010000EA00000000000020000000001D
:10417000000000000000000000000000010000003E
:10418000020000000300000004000000FEE7FEE75C
:104190007047704780B500F009F801BD80B502484E
:1041A000FDF7C0FB01BD0000AC08002002484168DB
:1041B00002788918416070476408002000F00DF80B
:1041C000002801D0FFF7AEFF00BF00BF002000BFF6
:1041D00000BF00F004F800F00EF80120704780B531
:1041E000FFF750F8FA208000FFF7F0FAFFF740FEE3
:1041F000FFF757FEFCE780B500F002F801BDFEE7CF
:1042000007463846FDF716FBFBE7FEE70548014683
:1042100003B4684680F3098800BF00BF00BF00BF39
:10422000FFF7CCFFA5EDF5FE8268521C8260426864
:10423000002A06D00268531C036011704168491EB1
:1042400041607047014880470148004785420008A7
:104250000D4200084F4B0D0A00000000FEE7FEE78C
:10426000FEE7FEE7FEE7FEE7FEE7FEE7FEE7FEE726
:10427000FEE7FEE7FEE7FEE7FEE7FEE7FEE7FEE716
:10428000FEE7FEE770470081008100810081008128
:104290000081008100810081008100810081008116
:1042A00000810081008100A40018F93E0008FB3E57
:1042B0000008073F00080F3F0008113F0008133FA8
:1042C000000801F9000004FC001E24F400864200EE
:1042D000088642000886420008864200088642009E
:1042E000088642000886420008F8FF0B5E110008AD
:0C42F0008642000886420008FAFFFE002B
:040000050800420DA0
:00000001FF
